{
  "contractName": "Lottery",
  "abi": [
    {
      "inputs": [
        {
          "internalType": "address",
          "name": "_vrfCoordinator",
          "type": "address"
        },
        {
          "internalType": "address",
          "name": "_linkToken",
          "type": "address"
        },
        {
          "internalType": "bytes32",
          "name": "_keyHash",
          "type": "bytes32"
        },
        {
          "internalType": "uint256",
          "name": "_fee",
          "type": "uint256"
        }
      ],
      "stateMutability": "nonpayable",
      "type": "constructor"
    },
    {
      "anonymous": false,
      "inputs": [
        {
          "indexed": false,
          "internalType": "address",
          "name": "palyer",
          "type": "address"
        },
        {
          "indexed": false,
          "internalType": "bool",
          "name": "created",
          "type": "bool"
        }
      ],
      "name": "Takepart",
      "type": "event"
    },
    {
      "inputs": [],
      "name": "CreateAt",
      "outputs": [
        {
          "internalType": "uint256",
          "name": "",
          "type": "uint256"
        }
      ],
      "stateMutability": "view",
      "type": "function"
    },
    {
      "inputs": [],
      "name": "entryFee",
      "outputs": [
        {
          "internalType": "uint256",
          "name": "",
          "type": "uint256"
        }
      ],
      "stateMutability": "view",
      "type": "function"
    },
    {
      "inputs": [],
      "name": "name",
      "outputs": [
        {
          "internalType": "string",
          "name": "",
          "type": "string"
        }
      ],
      "stateMutability": "view",
      "type": "function"
    },
    {
      "inputs": [
        {
          "internalType": "uint256",
          "name": "",
          "type": "uint256"
        }
      ],
      "name": "palyers",
      "outputs": [
        {
          "internalType": "address",
          "name": "",
          "type": "address"
        }
      ],
      "stateMutability": "view",
      "type": "function"
    },
    {
      "inputs": [],
      "name": "randomResult",
      "outputs": [
        {
          "internalType": "uint256",
          "name": "",
          "type": "uint256"
        }
      ],
      "stateMutability": "view",
      "type": "function"
    },
    {
      "inputs": [
        {
          "internalType": "bytes32",
          "name": "requestId",
          "type": "bytes32"
        },
        {
          "internalType": "uint256",
          "name": "randomness",
          "type": "uint256"
        }
      ],
      "name": "rawFulfillRandomness",
      "outputs": [],
      "stateMutability": "nonpayable",
      "type": "function"
    }
  ],
  "bytecode": "0x60c06040526040518060400160405280600881526020017f416b68696c657368000000000000000000000000000000000000000000000000815250600190805190602001906200005192919062000127565b5067016345785d8a000060025560006003553480156200007057600080fd5b506040516200097e3803806200097e83398181016040528101906200009691906200021c565b83838173ffffffffffffffffffffffffffffffffffffffff1660a08173ffffffffffffffffffffffffffffffffffffffff1660601b815250508073ffffffffffffffffffffffffffffffffffffffff1660808173ffffffffffffffffffffffffffffffffffffffff1660601b815250505050816004819055508060058190555042600881905550505050506200038e565b8280546200013590620002d6565b90600052602060002090601f016020900481019282620001595760008555620001a5565b82601f106200017457805160ff1916838001178555620001a5565b82800160010185558215620001a5579182015b82811115620001a457825182559160200191906001019062000187565b5b509050620001b49190620001b8565b5090565b5b80821115620001d3576000816000905550600101620001b9565b5090565b600081519050620001e88162000340565b92915050565b600081519050620001ff816200035a565b92915050565b600081519050620002168162000374565b92915050565b600080600080608085870312156200023957620002386200033b565b5b60006200024987828801620001d7565b94505060206200025c87828801620001d7565b93505060406200026f87828801620001ee565b9250506060620002828782880162000205565b91505092959194509250565b60006200029b82620002ac565b9050919050565b6000819050919050565b600073ffffffffffffffffffffffffffffffffffffffff82169050919050565b6000819050919050565b60006002820490506001821680620002ef57607f821691505b602082108114156200030657620003056200030c565b5b50919050565b7f4e487b7100000000000000000000000000000000000000000000000000000000600052602260045260246000fd5b600080fd5b6200034b816200028e565b81146200035757600080fd5b50565b6200036581620002a2565b81146200037157600080fd5b50565b6200037f81620002cc565b81146200038b57600080fd5b50565b60805160601c60a05160601c6105c7620003b760003960006102000152600050506105c76000f3fe608060405234801561001057600080fd5b50600436106100625760003560e01c806306fdde0314610067578063072ea61c1461008557806342619f66146100a3578063708883ce146100c15780637946c761146100df57806394985ddd1461010f575b600080fd5b61006f61012b565b60405161007c91906103d1565b60405180910390f35b61008d6101b9565b60405161009a9190610413565b60405180910390f35b6100ab6101bf565b6040516100b89190610413565b60405180910390f35b6100c96101c5565b6040516100d69190610413565b60405180910390f35b6100f960048036038101906100f4919061030f565b6101cb565b60405161010691906103b6565b60405180910390f35b610129600480360381019061012491906102cf565b6101fe565b005b60018054610138906104c3565b80601f0160208091040260200160405190810160405280929190818152602001828054610164906104c3565b80156101b15780601f10610186576101008083540402835291602001916101b1565b820191906000526020600020905b81548152906001019060200180831161019457829003601f168201915b505050505081565b60025481565b60065481565b60085481565b60076020528060005260406000206000915054906101000a900473ffffffffffffffffffffffffffffffffffffffff1681565b7f000000000000000000000000000000000000000000000000000000000000000073ffffffffffffffffffffffffffffffffffffffff163373ffffffffffffffffffffffffffffffffffffffff161461028c576040517f08c379a0000000000000000000000000000000000000000000000000000000008152600401610283906103f3565b60405180910390fd5b610296828261029a565b5050565b806006819055505050565b6000813590506102b481610563565b92915050565b6000813590506102c98161057a565b92915050565b600080604083850312156102e6576102e5610524565b5b60006102f4858286016102a5565b9250506020610305858286016102ba565b9150509250929050565b60006020828403121561032557610324610524565b5b6000610333848285016102ba565b91505092915050565b6103458161044a565b82525050565b60006103568261042e565b6103608185610439565b9350610370818560208601610490565b61037981610529565b840191505092915050565b6000610391601f83610439565b915061039c8261053a565b602082019050919050565b6103b081610486565b82525050565b60006020820190506103cb600083018461033c565b92915050565b600060208201905081810360008301526103eb818461034b565b905092915050565b6000602082019050818103600083015261040c81610384565b9050919050565b600060208201905061042860008301846103a7565b92915050565b600081519050919050565b600082825260208201905092915050565b600061045582610466565b9050919050565b6000819050919050565b600073ffffffffffffffffffffffffffffffffffffffff82169050919050565b6000819050919050565b60005b838110156104ae578082015181840152602081019050610493565b838111156104bd576000848401525b50505050565b600060028204905060018216806104db57607f821691505b602082108114156104ef576104ee6104f5565b5b50919050565b7f4e487b7100000000000000000000000000000000000000000000000000000000600052602260045260246000fd5b600080fd5b6000601f19601f8301169050919050565b7f4f6e6c7920565246436f6f7264696e61746f722063616e2066756c66696c6c00600082015250565b61056c8161045c565b811461057757600080fd5b50565b61058381610486565b811461058e57600080fd5b5056fea2646970667358221220b0990323c11369aa81d3ca2d1dec3f2822f2546c8ee89e3ed85c322863d0977c64736f6c63430008070033",
  "immutableReferences": {
    "75": [
      {
        "length": 32,
        "start": 512
      }
    ]
  },
  "source": "pragma solidity >=0.4.22 <0.9.0;\nimport \"@openzeppelin/contracts/access/Ownable.sol\";\nimport \"@chainlink/contracts/src/v0.8/VRFConsumerBase.sol\";\n\ncontract Lottery is VRFConsumerBase {\n    string public name = \"Akhilesh\";\n    uint256 public entryFee = 0.1 ether;\n    uint256 count = 0;\n    bytes32 internal keyHash;\n    uint256 internal fee;\n\n    uint256 public randomResult;\n    // mapping to the player\n    mapping(uint256 => address) public palyers;\n\n    uint256 public CreateAt;\n\n    // function for taking part in lottery\n    event Takepart(address palyer, bool created);\n\n    /**\n     * Constructor inherits VRFConsumerBase\n     *\n     * Network: Kovan\n     * Chainlink VRF Coordinator address: 0xdD3782915140c8f3b190B5D67eAc6dc5760C46E9\n     * LINK token address:                0xa36085F69e2889c224210F603D836748e7dC0088\n     * Key Hash: 0x6c3699283bda56ad74f6b855546325b68d482e983852a7a82979cc4807b641f4\n     */\n    constructor(\n        address _vrfCoordinator,\n        address _linkToken,\n        bytes32 _keyHash,\n        uint256 _fee\n    )\n        VRFConsumerBase(\n            _vrfCoordinator, // VRF Coordinator\n            _linkToken // LINK Token\n        )\n    {\n        keyHash = _keyHash;\n        fee = _fee;\n        CreateAt = block.timestamp;\n    }\n\n    // function takPart() public payable {\n    //     // require(block.timestamp <= CreateAt,\"Lottery is closed now\");\n    //     require(msg.value == entryFee, \"Enter fee  must be >= enteryFee\");\n\n    //     palyers[count] = msg.sender;\n\n    //     count++;\n    //     emit Takepart(msg.sender, true);\n    // }\n\n    // //function for piking a winner\n    // function peekwinner() public payable onlyOwner {3\n    //     //TODO Chainlink VRF\n    // }\n\n    /**\n     * Requests randomness\n     */\n    // function getRandomNumber() public returns (bytes32 requestId) {\n    //     require(\n    //         LINK.balanceOf(address(this)) >= fee,\n    //         \"Not enough LINK - fill contract with faucet\"\n    //     );\n    //     return requestRandomness(keyHash, fee);\n    // }\n\n    /**\n     * Callback function used by VRF Coordinator\n    //  */\n function fulfillRandomness(bytes32 requestId, uint256 randomness) internal override {\n        randomResult = randomness;\n    }\n}\n",
  "sourcePath": "/home/akhilesh/Desktop/test1/contracts/Lottery.sol",
  "compiler": {
    "name": "solc",
    "version": "0.8.7+commit.e28d00a7.Emscripten.clang"
  },
  "schemaVersion": "3.4.3",
  "updatedAt": "2021-11-19T19:46:18.935Z",
  "devdoc": {
    "kind": "dev",
    "methods": {},
    "version": 1
  },
  "userdoc": {
    "kind": "user",
    "methods": {
      "constructor": {
        "notice": "Constructor inherits VRFConsumerBase Network: Kovan Chainlink VRF Coordinator address: 0xdD3782915140c8f3b190B5D67eAc6dc5760C46E9 LINK token address:                0xa36085F69e2889c224210F603D836748e7dC0088 Key Hash: 0x6c3699283bda56ad74f6b855546325b68d482e983852a7a82979cc4807b641f4"
      }
    },
    "version": 1
  }
}